:100000001DC041C040C03FC03EC03DC03CC03BC021
:100010003AC039C038C037C036C035C002C233C05C
:1000200032C031C030C02FC02EC02DC02CC02BC05C
:100030002AC029C0A3013802AA013F0211241FBE11
:10004000CFEFD4E0DEBFCDBF11E0A0E0B1E0E6E647
:10005000F3E102C005900D92AA34B107D9F722E06E
:10006000AAE4B1E001C01D92A934B207E1F710E0A3
:10007000C8E3D0E003C02297FE0159D9C433D107A9
:10008000D1F735D164C9BCCF93B18F73907C982BD5
:1000900095B9089596B18F73907C982B98B908956F
:1000A00084E591E021D39B01AC01205C344F4F4F9C
:1000B0005F4F66EB70E68BE090E0B0D860934A014A
:1000C00070934B0180934C0190934D0188E791E030
:1000D0000BD39B01AC0120563A4F4F4F5F4F6CE65C
:1000E00071EC86E190E09AD860934E0170934F01D5
:1000F00080935001909351016AE471E080919C01DA
:1001000090919D01A6D308950F931F9365E271E02E
:1001100088E791E0E1D161E088E791E0E1D160E931
:1001200071E088E791E0DFD140E050E0BA0188E774
:1001300091E0F9D100ED12E020E030E040E35DEF26
:100140006FEF7FEF88E791E0BBD240E452E46FE0CD
:1001500070E088E791E0D8D288E791E0C7D11F919D
:100160000F9108950F931F9360E071E084E591E093
:10017000B3D161E084E591E0B3D168EC70E084E54F
:1001800091E0B1D140E050E0BA0184E591E0CBD1FB
:1001900000E41BE020E030E040EC54EF6FEF7FEF35
:1001A00084E591E08DD240E452E46FE070E084E5B4
:1001B00091E0AAD284E591E099D11F910F91089521
:1001C000CF93DF93EC01688179818A819B8126EB53
:1001D00030E64BE050E031D8BA01A90140545B4011
:1001E0006109710984E591E079D26C817D818E810C
:1001F0009F812CE631EC46E150E01FD8BA01A901FD
:10020000405A55406109710988E791E067D2DF9152
:10021000CF91089579DFA6DF08958FEF84B91AB8DA
:1002200087B918B88BB915B8089580919E0190913F
:100230009F01A8D78091C00088232CF480919C0155
:1002400090919D0170D389B18C7F8C3F09F44EC091
:100250004F9906C084E591E04DD288E791E04AD2FB
:100260004E990CC088E791E03FD2AB01BC01405CE5
:100270005F4F6F4F7F4F88E791E030D24D990CC0B0
:1002800040E050E0BA0184E591E028D240E050E03F
:10029000BA0188E791E022D24C990CC084E591E044
:1002A00023D2AB01BC01405451096109710984E5B5
:1002B00091E014D24B990CC088E791E015D2AB01C4
:1002C000BC01405451096109710988E791E006D2E7
:1002D0004A990CC084E591E007D2AB01BC01405CB7
:1002E0005F4F6F4F7F4F84E591E0F8D1089595DF20
:1002F00040D090DFCCE9D1E000E510E08881998121
:100300009AD2E881F98111830083CADE01C08DDFB2
:10031000888199811ED28530D1F740E050E0BA0142
:1003200084E591E0DBD140E050E0BA0188E791E05C
:10033000D5D12FEF8BE792E9215080409040E1F733
:1003400000C00000DBCF88E791E0A0D084E591E019
:100350009DD0089584E591E0BED088E791E0BBD0C0
:100360000895AB01BC0180919C0190919D0131D316
:100370000895EF92FF920F931F93CF93DF93CDB722
:10038000DEB7C85AD1090FB6F894DEBF0FBECDBF95
:10039000CE018A9601D68FE7FE01BA96A9ECB1E0AC
:1003A00001900D928A95E1F7CE018A96F4D5CE019F
:1003B0000196B0D189E2FE013196A0EAB1E0019048
:1003C0000D928A95E1F7CE014E9623D3E12CF12CC4
:1003D00001EB11E020E031EE45EF55E061E089EC02
:1003E00091E049D680EA91E026D289EC91E09093A1
:1003F0009F0180939E0180EA91E090939D018093FC
:100400009C01789480E0C855DF4F0FB6F894DEBFAA
:100410000FBECDBFDF91CF911F910F91FF90EF9055
:1004200008951F920F920FB60F9211242F933F93AE
:100430004F935F936F937F938F939F93AF93BF93EC
:10044000EF93FF9380919E0190919F013CD6FF9185
:10045000EF91BF91AF919F918F917F916F915F913C
:100460004F913F912F910F900FBE0F901F901895B5
:1004700089EC91E091D580EA91E04CD108958DEB23
:1004800091E0C7D289EC91E086D50895FC011082F5
:1004900011821282138214821582168217821086AC
:1004A00011861286138681E08487858742E050E0BA
:1004B00060E070E046875787608B718B40E653EEB3
:1004C00066E170E0428B538B648B758B178A168ABA
:1004D000138E128E08950895FC01718F608F089518
:1004E000FC0165870895FC0164870895EF92FF92EF
:1004F0000F931F93CF93DF93EC012A893B894C899B
:100500005D897C010DE513E063E080919E0190918F
:100510009F01B1D59F8B8E8BDF91CF911F910F9152
:10052000FF90EF900895FC0146875787608B718B91
:1005300008950F931F93CF93DF93EC0108811981E6
:100540002A813B8148A159A16AA17BA1401751078B
:100550006207730734F18A8D9B8D01969B8F8A8F7A
:100560002A8D3B8DE88DF98D82A190E028173907FF
:1005700014F01B8E1A8EAA8DBB8DAE0FBF1F03A069
:10058000F4A1E02D12968C910995488159816A81D8
:100590007B814F5F5F4F6F4F7F4F488359836A83E3
:1005A0007B83DF91CF911F910F9108950F931F933C
:1005B000CF93DF93EC01088119812A813B814C8D17
:1005C0005D8D6E8D7F8D04171507260737074CF15B
:1005D0008A8D9B8D892B41F4E88DF98D82A190E065
:1005E00001979B8F8A8F05C08A8D9B8D01979B8F6A
:1005F0008A8FE88DF98DAA8DBB8DAE0FBF1F03A02A
:10060000F4A1E02D12968C910995488159816A8157
:100610007B814150510961097109488359836A837B
:100620007B83DF91CF911F910F9108950F931F93BB
:10063000FC01408151816281738104811581268191
:100640003781401B510B620B730B6AF404811581D7
:10065000268137814081518162817381041B150B92
:10066000260B370B0CC0008111812281338144811C
:10067000558166817781041B150B260B370B468548
:10068000578560897189401751076207730794F491
:100690000481158126813781408151816281738176
:1006A00004171507260737071CF4CF017FDF02C0A8
:1006B000CF013FDF1F910F910895CB01B7DF089560
:1006C0000F931F93FC01448F558F668F778F00A384
:1006D00011A322A333A31F910F910895FC0144831A
:1006E0005583668377830895FC01608171818281DF
:1006F00093810895FC01148215821682178210825C
:100700001182128213820895FC01428B538B648BF9
:10071000758B08951F93CF93DF93EC011982188294
:1007200011E01A831B821C821D828AE08E831F8245
:100730001A8A1D8A1E8A1F8A188E198E1A8E1B8E7F
:100740001C8ECE014D965CD11A83DF91CF911F9103
:100750000895FC0182810895FC018381843090F426
:100760008091C00088235CF48091C600813121F41F
:1007700083818F5F8383089582E08283089582E07E
:10078000828308958381893058F48091C000882342
:100790001CF482E08283089583818F5F83830895B0
:1007A00083818E3080F48091C00088234CF4A6ECC5
:1007B000B0E08C918F5F8C9383818F5F83830895EA
:1007C00082E08283089581E08483858384E082834C
:1007D0000895CF93DF93EC016D9663E0CE011AD1BB
:1007E00040E855E260E070E0CE0186D160E0CE01E5
:1007F00040D160E0CE0150D160E0CE0165D1CE01A4
:1008000076D1CE0174D2DF91CF9108952091C000AE
:1008100022236CF42091C600213129F4FC011382BB
:1008200023E02283089581E18093C600089581E149
:100830008093C6000895CF93DF93EC01CADF1A8A34
:100840001D8A1C8A1B8A82E08A8380E0DF91CF9117
:100850000895FC018289811105C0748B638B158A10
:1008600081E0828B0895FC01128A158A148A138A0A
:10087000178213820895CF93DF93EC01F4DF82E0B7
:100880008A83DF91CF910895FC0126892111F3DF3E
:1008900008952091C600253521F424E0FC0122832F
:1008A000089525E0FC01228308952091C600253596
:1008B00039F4FC0115822093C60024E022830895B8
:1008C00025E0FC0122830895FC0187819091C600F8
:1008D000DF01A80FB11D18969C938F5F8783148248
:1008E0009681891304C01782CF01089669DC0895A8
:1008F000FC0182898823B1F08589A389B489A80F76
:10090000B11D8C918093C60085898F5F858B158280
:100910009681891307C0128A0190F081E02D3097EB
:1009200009F009950895CF93DF93EC018091480277
:1009300081111DC08091C0008823CCF481E0809398
:1009400048021C828A81873019F4CE01AEDF0DC0C7
:100950008A81863019F4CE019CDF07C08A818430F9
:1009600021F4CE01B1DFCE01C3DF10924802DF9146
:10097000CF910895FC0184818F5F848384818530C9
:1009800019F487E08283089584818A3011F485E028
:1009900082830895FC0185818F5F85838581843002
:1009A00031F485E58093C60086E0828308958581D1
:1009B0008A3011F485E082830895CF93DF93EC01B0
:1009C000D9DF8A81843011F4CE01E4DFDF91CF9149
:1009D0000895FC012281243089F028F4223041F06E
:1009E000233041F00895253039F0283040F406C016
:1009F0000DDF0895B1DE089547DF0895DEDF089525
:100A0000FC011082118212821382148215821682D6
:100A100008950895FC01611105C085E0878320E0F9
:100A200080E01EC0613029F486E0878322E080E008
:100A300017C0623029F487E0878324E080E010C08B
:100A4000633029F488E0878326E080E009C06430C1
:100A500029F489E0878326E084E002C020E080E07A
:100A600091819B7F982B91838281897F822B8283C6
:100A70000895662331F0613031F0623031F030E0BA
:100A800005C030E003C030E401C030ECFC0122813D
:100A90002F73232B22830895FC01611103C011865B
:100AA00090E00DC0613021F481E0818790E207C0C1
:100AB000623021F481E0818790E301C090E082817F
:100AC0008F7C892B82830895FC01611104C081E031
:100AD000808790E007C0613021F482E0808798E051
:100AE00001C090E08281877F892B82830895FC0179
:100AF0002181286121830895FC0143835483658308
:100B0000768308958F929F92AF92BF92CF92DF9299
:100B1000EF92FF92CF93DF93EC018B809C80AD80AE
:100B2000BE80D501C401880F991FAA1FBB1F880F63
:100B3000991FAA1FBB1F9C01AD01220F331F441F29
:100B4000551F220F331F441F551F60E070E18EE5D3
:100B50009FE573D369017A0181E0C81AD108E108E1
:100B6000F108C701B60124E630E040E050E065D36B
:100B7000633371058105910578F0C701B60124E65C
:100B800030E040E050E059D369017A018FEFC81A94
:100B9000D80AE80AF80A09C0C701B60124E630E01D
:100BA00040E050E04AD369017A01D701C6010196BD
:100BB000A11DB11D880F991FAA1FBB1F880F991F68
:100BC000AA1FBB1F9C01AD01220F331F441F551FDD
:100BD000220F331F441F551F60E074E284EF90E042
:100BE0002CD3C216D306E406F50640F5DA01C90196
:100BF0008C199D09AE09BF09880F991FAA1FBB1F39
:100C0000880F991FAA1FBB1F880F991FAA1FBB1F00
:100C1000880F991FAA1FBB1F880F991FAA1FBB1FF0
:100C2000880F991FAA1FBB1FBC01CD01660F771F3C
:100C3000881F991FA701960100D327C0D701C601BD
:100C4000821B930BA40BB50B880F991FAA1FBB1F08
:100C5000880F991FAA1FBB1F880F991FAA1FBB1FB0
:100C6000880F991FAA1FBB1F880F991FAA1FBB1FA0
:100C7000880F991FAA1FBB1FBC01CD01660F771FEC
:100C8000881F991FA7019601D8D2232B242B252B2F
:100C9000F1F0880C991CAA1CBB1C880C991CAA1C7E
:100CA000BB1CA5019401220F331F441F551F60E098
:100CB00074E284EF90E0C1D269017A0181E0C81A40
:100CC000D108E108F10888818260888303C08881A7
:100CD0008D6F8883CA86DB86DF91CF91FF90EF907E
:100CE000DF90CF90BF90AF909F908F900895CF935B
:100CF000DF93EC0107DF88818093C00089818093B6
:100D0000C1008A818093C2008A858093C4008B854C
:100D10008093C500DF91CF910895611102C0FC015D
:100D2000118208954F925F926F927F928F929F925D
:100D3000AF92BF92CF92DF92EF92FF920F931F93E9
:100D4000CF93DF934C012A013B01DB01CA010F2E37
:100D5000FEE3AF2EF02DB12CC12CD12CE12CF12CC7
:100D600000E010E0242F392F4A2F5B2F60E070E065
:100D700080E090E090D2E22EF32E042F152FB62FB4
:100D8000A72FF82FE92F2F3FCFEF3C07C3E04C07E9
:100D90005105610571058105910511F008F080C0CC
:100DA0002F3F3F4F410551056105710581059105B3
:100DB00069F060F085E0F401828380E098EFA0E0C4
:100DC000B0E080879187A287B38765C02E2D3F2D25
:100DD000402F512F6B2F7A2F8F2F9E2F2F3F3F4366
:100DE00041055105610571058105910569F060F0C6
:100DF00084E0F401828380E09EE3A0E0B0E080879D
:100E00009187A287B38747C02E2D3F2D402F512FAA
:100E10006B2F7A2F8F2F9E2F2F3F37404105510583
:100E2000610571058105910569F060F083E0F401C9
:100E3000828380E89FE0A0E0B0E080879187A2876E
:100E4000B38729C02E2D3F2D402F512F6B2F7A2F86
:100E50008F2F9E2F2F3F31054105510561057105EB
:100E60008105910569F060F082E0F401828380EFF2
:100E700091E0A0E0B0E080879187A287B3870BC0A4
:100E800081E0F40182838EE390E0A0E0B0E080870F
:100E90009187A287B387F401448655866686778654
:100EA000DF91CF911F910F91FF90EF90DF90CF9046
:100EB000BF90AF909F908F907F906F905F904F907A
:100EC0000895FC01208927BD818988BD0895FC0112
:100ED0002781287F226027830895FC01178222E062
:100EE0002683F5DF0895FC0184818C7F82608483F2
:100EF0008581877F85830895FC018181811102C0EE
:100F0000928101C090E097708581887F892B8583CD
:100F10000895CF93DF93EC016C857D858E859F8549
:100F2000288539854A855B8588D1288B198ADF9188
:100F3000CF910895FC0124812F7024830895CF93CD
:100F4000DF93EC011C821D82F5DFCE01E2DFCE01D2
:100F5000D3DFCE01C8DFDF91CF910895FC0124815A
:100F600024BD858185BD0895FC01278125BB86812F
:100F700080936E000895CF93DF93EC01E0DFCE0104
:100F8000ACDFCE01EBDFCE019CDFCE01EDDFDF91E8
:100F9000CF910895089508950F931F93CF93DF93F2
:100FA000CDB7DEB762970FB6F894DEBF0FBECDBFE8
:100FB0008C01F0DF88E0D80152968C9380E291EAB0
:100FC000A7E0B0E0F801838B948BA58BB68B779666
:100FD00088E6DF011D928A95E9F7CE010196DADFF6
:100FE00082E1FE013196D80101900D928A95E1F7D8
:100FF000CE010196D0DF60E0C8018FDEF8014389A1
:10100000548965897689C8018DDEC801B4DF62968E
:101010000FB6F894DEBF0FBECDBFDF91CF911F9109
:101020000F910895FC017289772311F1278921110D
:1010300016C008C0A90160812F5F3F4F3D96611126
:1010400012C002C040E050E06DE0649F9001659FD7
:10105000300D1124295E3F4F820F931F0895FC012C
:10106000B49621E030E0271728F380E090E008955F
:1010700080E090E008958F929F92AF92BF92EF929E
:10108000FF920F931F93CF93C62F49015A01CADFD6
:10109000FC01009769F081829282A382B4828582EA
:1010A0009682A782B08612870187F486E386C08382
:1010B000CF01CF911F910F91FF90EF90BF90AF9014
:1010C0009F908F900895EF92FF920F931F93CF936D
:1010D000DF93EC018A89882309F44DC0F12C0F2E8F
:1010E000FDE0EF2EF02DDE01EF9CA00DB11D1124CF
:1010F00057968C918823D1F115960D911D912D91C4
:101100003C9118974B895C896D897E890417150776
:101110002607370758F1041B150B260B370B1596BE
:101120000D931D932D933C9318978130F9F44B89BF
:101130005C896D897E890417150726073707B0F487
:1011400011964D915D916D917C91149715964D93EB
:101150005D936D937C9318971B966D917C911C9772
:101160001996ED91FC911A97CD010995F3948A890E
:10117000F81608F4B8CFDF91CF911F910F91FF902F
:10118000EF900895EF92FF920F931F93CF93DF9309
:10119000EC0195B180EC892785B98A898823B9F15A
:1011A000F12C0F2EFDE0EF2EF02DDE01EF9CA00DB7
:1011B000B11D112457968C91833029F515960D9108
:1011C0001D912D913C9118974B895C896D897E8981
:1011D0000417150726073707B0F411964D915D9156
:1011E0006D917C91149715964D935D936D937C93BF
:1011F00018971B966D917C911C971996ED91FC9117
:101200001A97CD010995F3948A89F81670F2DF9147
:10121000CF911F910F91FF90EF900895DB018F9375
:101220009F932DD0BF91AF91A29F800D911DA39F41
:10123000900DB29F900D11240895A1E21A2EAA1BC1
:10124000BB1BFD010DC0AA1FBB1FEE1FFF1FA21776
:10125000B307E407F50720F0A21BB30BE40BF50B73
:10126000661F771F881F991F1A9469F760957095FC
:10127000809590959B01AC01BD01CF0108955BD095
:10128000A59F900DB49F900DA49F800D911D1124DA
:101290000895689401C0E8948F929F92CF93DF9352
:1012A00005D0DF91CF919F908F9008958824992445
:1012B000F401E401B0E41B2ED4019D158E049F04BB
:1012C000E007F10738F4FC014B01CA01B901AD0197
:1012D0009E011694220F331F441F551F661F771F50
:1012E000881F991F881C991CEE1FFF1FCC1FDD1F34
:1012F000AA1FBB1F8A149B04EC05FD05CE05DF0564
:10130000A007B10748F08A189B08EC09FD09CE092F
:10131000DF09A00BB10B21601A94E1F62EF49401C1
:10132000AF01BE01CD01000C0895EE0FFF1F059027
:10133000F491E02D0994A29FB001B39FC001A39F37
:1013400001D0B29F700D811D1124911D089510E0F0
:10135000C8E3D0E003C0FE01EADF2296CC33D10718
:06136000D1F7F894FFCF65
:10136600030001050406020A080900000000000047
:101376000000000000000000000000000000000067
:101386000000084400030004141018082820240054
:101396000000000000000000000000000000000047
:0A13A60000000000000000084A00EB
:00000001FF
