:1000000019C028C027C026C025C024C023C022C0D4
:1000100021C020C01FC01EC01DC01CC01CC01AC0F3
:1000200019C018C017C016C015C014C013C012C024
:1000300011C010C011241FBECFEFD4E0DEBFCDBF72
:1000400021E0A0E0B1E001C01D92A230B207E1F7CB
:1000500019D084C1D5CF1F920F920FB60F921124E1
:100060008F93809101018095809301018F3F11F45E
:1000700081E001C082E085B98F910F900FBE0F9093
:100080001F901895CF93DF93CDB7DEB762970FB669
:10009000F894DEBF0FBECDBF83E084B915B88FEFF3
:1000A0008AB98BB9CE01019635D160E0CE010196B7
:1000B00029D040E45BE86EE87FE0CE01019627D0CE
:1000C000CE01019616D12FE38DE093E021508040C0
:1000D0009040E1F700C00000789480910001811108
:1000E00003C086B58BB9F9CFCE01019614D180E05B
:1000F00090E062960FB6F894DEBF0FBECDBFDF91E1
:10010000CF910895611102C0FC01118208954F92B0
:100110005F926F927F928F929F92AF92BF92CF9297
:10012000DF92EF92FF92CF93DF93EC016A017B01A4
:10013000CB01BA0128EE33E040E050E0EDD02901D8
:100140003A01A30160E070E080E090E02F3FAFEF64
:100150003A07A3E04A07510561057105810591053C
:1001600011F008F064C02F3F3F4F41055105610574
:1001700071058105910541F038F085E08A8380E0C2
:1001800090EAAFE0B0E04BC09201A30160E070E004
:1001900080E090E02F3F3F43410551056105710527
:1001A0008105910541F038F084E08A8380E098EE83
:1001B000A3E0B0E034C09201A30160E070E080E011
:1001C00090E02F3F374041055105610571058105DC
:1001D000910541F038F083E08A8380E09AEFA0E057
:1001E000B0E01DC09201A30160E070E080E090E00B
:1001F0002F3F3105410551056105710581059105C7
:1002000041F038F082E08A8380E49FE1A0E0B0E032
:1002100006C081E08A8388EE93E0A0E0B0E08887A2
:100220009987AA87BB87CC86DD86EE86FF86DF911D
:10023000CF91FF90EF90DF90CF90BF90AF909F90C5
:100240008F907F906F905F904F900895FC01808910
:1002500087BD818988BD80898BB90895FC0127817C
:10026000287F226027830895FC01178222E02683DD
:10027000F5CFFC0184818C7F826084838581877FB8
:1002800085830895FC018181811102C0828101C0B2
:1002900080E087709581987F892B85830895CF931F
:1002A000DF93EC016C857D858E859F85288539855A
:1002B0004A855B8531D0288B198ADF91CF910895CB
:1002C000CF93DF93EC011C821D82E9DFCE01DADFE0
:1002D000CE01DF91CF91CDCFFC01248124BD85815A
:1002E00085BD0895FC01278125BB868180936E0022
:1002F0000895CF93DF93EC01E3DFCE01B5DFCE01AC
:10030000EBDFCE01A3DFCE01EDDF8D818BB9DF9175
:10031000CF91089508950895A1E21A2EAA1BBB1B40
:10032000FD010DC0AA1FBB1FEE1FFF1FA217B307C1
:10033000E407F50720F0A21BB30BE40BF50B661FD7
:10034000771F881F991F1A9469F76095709580959B
:1003500090959B01AC01BD01CF010895F894FFCFAA
:00000001FF
