S011000041746D656761526F6D2E7372656396
S11300001DC041C040C03FC03EC03DC03CC03BC01D
S11300103AC039C038C037C036C035C001C233C059
S113002032C031C030C02FC02EC02DC02CC02BC058
S11300302AC029C0A5013702AB013D0211241FBE0D
S1130040CFEFD4E0DEBFCDBF11E0A0E0B1E0E8E047
S1130050F2E102C005900D92AA34B107D9F722E06B
S1130060AAE4B1E001C01D92A934B207E1F710E09F
S1130070C8E3D0E003C02297FE01AAD8C433D10755
S1130080D1F732D1B5C8BCCF93B18F73907C892B93
S113009085B9089596B18F73907C892B88B908959A
S11300A084E591E017D39B01AC01205C344F4F4FA2
S11300B05F4F66EB70E68BE090E001D860934A01F5
S11300C070934B0180934C0190934D0188E791E02C
S11300D001D39B01AC0120563A4F4F4F5F4F6CE662
S11300E071EC86E190E0EBD760934E0170934F0181
S11300F080935001909351016AE471E080919C01D6
S113010090919D0187C30F931F9365E271E088E787
S113011091E0DFD161E088E791E0DFD160E971E04F
S113012088E791E0DDD14AE050E060E070E088E7E4
S113013091E0F6D100ED12E020E030E040E35DEF25
S11301406FEF7FEF88E791E0B1D240E452E46FE0D3
S113015070E088E791E0CED288E791E01F910F919B
S1130160C2C10F931F9360E071E084E591E0B1D1C7
S113017061E084E591E0B1D168EC70E084E591E060
S1130180AFD144E150E060E070E084E591E0C8D193
S113019000E41BE020E030E040EC54EF6FEF7FEF31
S11301A084E591E083D240E452E46FE070E084E5BA
S11301B091E0A0D284E591E01F910F9194C1CF9377
S11301C0DF93EC01688179818A819B8126EB30E69B
S11301D04BE050E083D7BA01A90140545B40610968
S11301E0710984E591E070D26C817D818E819F815B
S11301F02CE631EC46E150E071D7BA01A901405A2E
S113020055406109710988E791E0DF91CF915CC2A3
S11302107ADFA7CF8FEF84B91AB887B918B88BB92A
S113022015B8089580919E0190919F0100D7809107
S1130230C00087FF05C080919C0190919D0150D31F
S113024089B18C7F8C3F09F44EC04F9906C084E578
S113025091E046D288E791E043D24E990CC088E7FA
S113026091E038D2AB01BC01405C5F4F6F4F7F4FD0
S113027088E791E029D24D990CC040E050E0BA01E2
S113028084E591E021D240E050E0BA0188E791E0B2
S11302901BD24C990CC084E591E01CD2AB01BC018B
S11302A0405451096109710984E591E00DD24B99DB
S11302B00CC088E791E00ED2AB01BC014054510957
S11302C06109710988E791E0FFD14A990CC084E57E
S11302D091E000D2AB01BC01405C5F4F6F4F7F4F98
S11302E084E591E0F1C1089584B794DF41D090DFB3
S11302F0C0E5D0E080919C0190919D017DD2E09178
S11303009C01F0919D01D183C083CADE80919C0140
S113031090919D0114D2853011F084DFF7CF40E035
S113032050E0BA0184E591E0CFD140E050E0BA0159
S113033088E791E0C9D12FEF8BE792E92150804003
S11303409040E1F700C00000D5CF88E791E09BD052
S113035084E591E098C084E591E0BAD088E791E023
S1130360B7C0AB01BC0180919C0190919D010EC36B
S1130370EF92FF920F931F93CF93DF93CDB7DEB726
S1130380CF57D1090FB6F894DEBF0FBECDBFCE0153
S113039001965DD58FE7FE013196A9ECB1E001909D
S11303A00D928A95E1F7CE01019650D5CE010196C2
S11303B0A7D189E2FE013196A0EAB1E001900D9245
S11303C08A95E1F7CE014E96FED2E12CF12C01EB99
S11303D011E020E031EE45EF55E061E089EC91E079
S11303E09DD580EA91E008D289EC91E090939F0139
S11303F080939E0180EA91E090939D0180939C01FB
S1130400789480E0C158DF4F0FB6F894DEBF0FBE7A
S1130410CDBFDF91CF911F910F91FF90EF90089581
S11304201F920F920FB60F9211242F933F934F9365
S11304305F936F937F938F939F93AF93BF93EF9348
S1130440FF9380919E0190919F019BD5FF91EF9125
S1130450BF91AF919F918F917F916F915F914F91D8
S11304603F912F910F900FBE0F901F90189589EC1C
S113047091E0EDD480EA91E043C18DEB91E0A3D209
S113048089EC91E0E3C4FC01108211821282138290
S1130490148215821682178210861186128613869C
S11304A081E08487858742E050E060E070E0468721
S11304B05787608B718B40E653EE66E170E0428BA8
S11304C0538B648B758B178A168A138E128E08953C
S11304D00895FC01718F608F0895FC01658708956C
S11304E0FC0164870895EF92FF920F931F93CF93BB
S11304F0DF93EC012A893B894C895D897C0104E501
S113050013E063E080919E0190919F0107D59F8B3A
S11305108E8BDF91CF911F910F91FF90EF900895F3
S1130520FC0146875787608B718B08950F931F9347
S1130530CF93DF93EC01088119812A813B8148A183
S113054059A16AA17BA1401751076207730734F1CF
S11305508A8D9B8D01969B8F8A8F2A8D3B8DE88D8A
S1130560F98D82A190E02817390714F01B8E1A8E9A
S1130570AA8DBB8DAE0FBF1F03A0F4A1E02D129670
S11305808C910995488159816A817B814F5F5F4FC6
S11305906F4F7F4F488359836A837B83DF91CF9169
S11305A01F910F9108950F931F93CF93DF93EC0145
S11305B0088119812A813B814C8D5D8D6E8D7F8DE3
S11305C0041715072607370724F18A8D9B8DE88DBC
S11305D0F98D892B19F482A190E002C08A8D9B8D3C
S11305E001979B8F8A8FAA8DBB8DAE0FBF1F03A06F
S11305F0F4A1E02D12968C910995488159816A8164
S11306007B814150510961097109488359836A8387
S11306107B83DF91CF911F910F9108950F931F93C7
S1130620FC0140815181628173810481158126819D
S11306303781401B510B620B730B77FF09C0448158
S1130640558166817781008111812281338108C0BF
S113065040815181628173810481158126813781B2
S1130660401B510B620B730B06851785208931895A
S11306704017510762077307A4F00481158126818E
S113068037814081518162817381CF01041715073D
S1130690260737071CF41F910F9185CF1F910F91E7
S11306A045CF1F910F910895CB01B8CF0F931F939E
S11306B0FC01448F558F668F778F00A311A322A36B
S11306C033A31F910F910895FC01448355836683DE
S11306D077830895FC0160817181828193810895FB
S11306E0FC011482158216821782108211821282F2
S11306F013820895FC01428B538B648B758B089590
S11307001F93CF93DF93EC011982188211E01A83AF
S11307101B821C821D828AE08E831F821A8A1D8A94
S11307201E8A1F8A188E198E1A8E1B8E1C8ECE015D
S11307304D9640D11A83DF91CF911F910895FC010A
S113074082810895FC018381843048F48091C00043
S113075087FF1DC08091C6008131C9F414C0838114
S1130760893028F48091C00087FF0DC010C08381B8
S11307708E3078F48091C00087FF09C08091C60054
S11307808F5F8093C60083818F5F8383089582E0A7
S113079004C081E08483858384E082830895CF93B9
S11307A0DF93EC016D9663E0CE010ED140E855E293
S11307B060E070E0CE0170D160E0CE012FD160E046
S11307C0CE013DD160E0CE0150D1CE0160D1CE0149
S11307D0DF91CF91F6C12091C00027FF09C020917D
S11307E0C600213129F4FC01138223E022830895F9
S11307F081E18093C6000895CF93DF93EC01CFDFAE
S11308001A8A1D8A1C8A1B8A82E08A8380E0DF910F
S1130810CF910895FC018289811105C0748B638B8B
S1130820158A81E0828B0895FC01128A158A148A44
S1130830138A178213820895CF93DF93EC01F4DFB8
S113084082E08A83DF91CF910895FC0126892111EA
S1130850F3CF08952091C600253511F424E001C09A
S113086025E0FC0122830895FC018091C6008535B2
S113087029F415828093C60084E001C085E0828358
S11308800895FC0187819091C600DF01A80FB11D76
S113089018969C938F5F878314829681891304C072
S11308A01782CF0108968BCC0895FC018289882396
S11308B0B1F08589A389B489A80FB11D8C91809367
S11308C0C60085898F5F858B15829681891307C041
S11308D0128A0190F081E02D309709F0099408956F
S11308E0CF93DF93EC018091480281111DC0809168
S11308F0C00087FF19C081E0809348021C828A816E
S1130900873019F4CE01B0DF0DC08A81863019F426
S1130910CE01A0DF07C08A81843021F4CE01B1DF8B
S1130920CE01C3DF10924802DF91CF910895FC01FC
S113093084818F5F84838481853011F487E004C0CF
S113094084818A3011F485E082830895FC018581D5
S11309508F5F85838581843029F485E58093C60083
S113096086E004C085818A3011F485E0828308958D
S1130970CF93DF93EC01DBDF8A81843021F4CE0155
S1130980DF91CF91E3CFDF91CF910895FC012281D4
S1130990243071F028F4223041F0233039F00895E6
S11309A0253029F0283028F403C015CFCBCE4DCF05
S11309B0DFCF0895FC011082118212821382148207
S11309C01582168208950895FC01611103C085E023
S11309D0878319C0613021F486E0878382E014C0E4
S11309E0623021F487E0878384E00EC0633021F411
S11309F088E0878386E008C0643029F489E087832F
S1130A0086E094E002C080E090E021812B7F292BD6
S1130A1021839281997F982B92830895611102C05A
S1130A2030E007C0613021F06230D1F730EC01C012
S1130A3030E4FC0122812F73232B22830895FC01CF
S1130A40611102C011860BC0613019F4618790E214
S1130A5007C0623021F481E0818790E301C090E017
S1130A6082818F7C892B82830895FC01611103C0EC
S1130A7081E0808706C0613021F482E0808798E0BD
S1130A8001C090E08281877F892B82830895FC01D5
S1130A902181286121830895FC0143835483658364
S1130AA0768308958F929F92AF92BF92CF92DF92F6
S1130AB0EF92FF921F93CF93DF93EC018B809C8086
S1130AC0AD80BE80A501940174E0220F331F441F42
S1130AD0551F7A95D1F760E070E18EE59FE5FED26F
S1130AE02150310941095109CA01B90124E630E014
S1130AF040E050E0F3D269017A0163337105810566
S1130B00910528F08FEFC81AD80AE80AF80AA70155
S1130B1096012F5F3F4F4F4F5F4F64E0220F331F0B
S1130B20441F551F6A95D1F760E074E284EF90E0AA
S1130B30D5D2C216D306E406F50638F4CA01B901C3
S1130B406C197D098E099F0906C0C701B601621B95
S1130B50730B840B950B27E0660F771F881F991F73
S1130B602A95D1F7A7019601B9D21881232B242BFA
S1130B70252BB9F0A501940183E0220F331F441FF4
S1130B80551F8A95D1F760E074E284EF90E0A6D215
S1130B9069017A0181E0C81AD108E108F1081260FC
S1130BA001C01D6F1883CA86DB86DF91CF911F9128
S1130BB0FF90EF90DF90CF90BF90AF909F908F9079
S1130BC00895CF93DF93EC016DDF88818093C0009B
S1130BD089818093C1008A818093C2008A85809331
S1130BE0C4008B858093C500DF91CF910895611176
S1130BF002C0FC01118208954F925F926F927F921E
S1130C008F929F92AF92BF92CF92DF92EF92FF9218
S1130C100F931F93CF93DF93CDB7DEB728970FB60B
S1130C20F894DEBF0FBECDBF4C012A013B019A01EF
S1130C30AB0160E070E0CB0129833A834B835C8392
S1130C406D837E838F8398878EE3A82EB12CC12C6D
S1130C50D12CE12CF12C00E010E060E070E080E0A9
S1130C6090E06AD279018A01B62FA72FF82FD92EE6
S1130C702F3FEFEF3E07E3E04E0751056105710595
S1130C808105910511F008F06AC02F3F3F4F4105DF
S1130C905105610571058105910549F040F085E034
S1130CA0F401828380E098EFA0E0B0E04FC09701A8
S1130CB0A8016B2F7A2F8F2F9D2D2F3F3F43410586
S1130CC05105610571058105910549F040F084E005
S1130CD0F401828380E09EE3A0E0B0E037C0970196
S1130CE0A8016B2F7A2F8F2F9D2D2F3F3740410561
S1130CF05105610571058105910549F040F083E0D6
S1130D00F401828380E89FE0A0E0B0E01FC0970177
S1130D10A8016B2F7A2F8F2F9D2D2F3F3105410571
S1130D205105610571058105910549F040F082E0A6
S1130D30F401828380EF91E0A0E0B0E007C081E09D
S1130D40F40182838EE390E0A0E0B0E08087918795
S1130D50A287B387F40144865586668677862896EB
S1130D600FB6F894DEBF0FBECDBFDF91CF911F91B8
S1130D700F91FF90EF90DF90CF90BF90AF909F9036
S1130D808F907F906F905F904F900895FC01208921
S1130D9027BD818988BD0895FC012781287F2260B1
S1130DA027830895FC01178222E02683F5CFFC01F6
S1130DB084818C7F826084838581877F8583089585
S1130DC0FC018181811102C0828101C080E08770B1
S1130DD09581987F892B85830895CF93DF93EC01C8
S1130DE06C857D858E859F85288539854A855B85BB
S1130DF075D1288B198ADF91CF910895CF93DF9312
S1130E00EC011C821D82E9DFCE01DADFCE01DF9125
S1130E10CF91CDCFFC01248124BD858185BD08956A
S1130E20FC01278125BB868180936E000895CF93B2
S1130E30DF93EC01E3DFCE01B5DFCE01EBDFCE01C2
S1130E40A5DFCE01DF91CF91EBCF089508950F93E5
S1130E501F93CF93DF93CDB7DEB762970FB6F894A5
S1130E60DEBF0FBECDBF8C01F0DF88E0D801529603
S1130E708C9380E291EAA7E0B0E0F801838B948B35
S1130E80A58BB68B779688E6DF011D928A95E9F7E4
S1130E90CE010196DADF82E1FE013196D80101909C
S1130EA00D928A95E1F7CE010196D0DF60E0C8018A
S1130EB09EDEF8014389548965897689C8019CDEE0
S1130EC0C801B5DF62960FB6F894DEBF0FBECDBF82
S1130ED0DF91CF911F910F910895FC01828940E029
S1130EE050E020E030E02817B0F4B901DF01A40F8E
S1130EF0B51F57969C912F5F3F4F435F5F4F9111F2
S1130F00F2CF2DE0269FC001279F900D1124479614
S1130F108E0F9F1F089580E090E00895EF92FF9256
S1130F200F931F93CF93DF9300D000D01F92CDB7C0
S1130F30DEB72A833B834C835D836983CEDFFC0168
S1130F402A813B814C815D816981009769F021830D
S1130F5032834383548325833683478350871287A0
S1130F600187F486E3866083CF010F900F900F9082
S1130F700F900F90DF91CF911F910F91FF90EF9001
S1130F800895EF92FF920F931F93CF93DF93EC0199
S1130F90F12C8DE0E82E8A89F81608F041C0DE01B4
S1130FA0EF9CA00DB11D112457968C918823B1F1AB
S1130FB015960D911D912D913C9118974B895C8943
S1130FC06D897E89041715072607370738F1041B36
S1130FD0150B260B370B15960D931D932D933C93F0
S1130FE018978130D9F40417150726073707B0F48A
S1130FF011964D915D916D917C91149715964D9339
S11310005D936D937C9318971B966D917C911C97BF
S11310101996ED91FC911A97CD010995F394BBCFE4
S1131020DF91CF911F910F91FF90EF900895EF9270
S1131030FF920F931F93CF93DF93EC0185B190EC54
S1131040892785B9F12C9DE0E92E8A89F81680F567
S1131050DE01EF9CA00DB11D112457968C918330B5
S113106029F515960D911D912D913C9118974B8959
S11310705C896D897E890417150726073707B0F444
S113108011964D915D916D917C91149715964D93A8
S11310905D936D937C9318971B966D917C911C972F
S11310A01996ED91FC911A97CD010995F394CDCF42
S11310B0DF91CF911F910F91FF90EF900895DB0185
S11310C08F939F932DD0BF91AF91A29F800D911DBF
S11310D0A39F900DB29F900D11240895A1E21A2EA2
S11310E0AA1BBB1BFD010DC0AA1FBB1FEE1FFF1FC8
S11310F0A217B307E407F50720F0A21BB30BE40B18
S1131100F50B661F771F881F991F1A9469F760955E
S11311107095809590959B01AC01BD01CF01089518
S11311205BD0A59F900DB49F900DA49F800D911D41
S113113011240895689401C0E8948F929F92CF93EC
S1131140DF9305D0DF91CF919F908F9008958824ED
S11311509924F401E401B0E41B2ED4019D158E04FE
S11311609F04E007F10738F4FC014B01CA01B901FF
S1131170AD019E011694220F331F441F551F661F95
S1131180771F881F991F881C991CEE1FFF1FCC1FF7
S1131190DD1FAA1FBB1F8A149B04EC05FD05CE05A9
S11311A0DF05A007B10748F08A189B08EC09FD0980
S11311B0CE09DF09A00BB10B21601A94E1F62EF4DD
S11311C09401AF01BE01CD01000C0895EE0FFF1F85
S11311D00590F491E02D0994A29FB001B39FC00142
S11311E0A39F01D0B29F700D811D1124911D0895FC
S11311F010E0C8E3D0E003C0FE01EADF2296CC335E
S10B1200D107D1F7F894FFCFE8
S1131208030004141018082820240000000000001B
S113121800000000000000000000000000000000C2
S11312280000084A000300041410180828202400A9
S113123800000000000000000000000000000000A2
S10D1248000000000000000844004C
S9030000FC
