S014000041746D65676153657269616C2E7372656361
S113000019C033C032C031C030C02FC02EC02DC083
S11300102CC02BC02AC029C028C027C026C025C098
S113002024C023C02DC021C021C01FC01EC01DC0BC
S11300301CC01BC011241FBECFEFD4E0DEBFCDBF58
S113004011E0A0E0B1E0E0E0F4E002C005900D9220
S1130050A230B107D9F721E0A2E0B1E001C01D92BE
S1130060A330B207E1F726D0C9C1CACF1F920F92BD
S11300700FB60F9211240F900FBE0F901F9018957A
S11300801F920F920FB60F9211248F93EF93FF9349
S1130090E6ECF0E080818093000183E085B98091F3
S11300A000018083FF91EF918F910F900FBE0F900D
S11300B01F901895CF93DF93CDB7DEB72C970FB66B
S11300C0F894DEBF0FBECDBF83E084B915B8CE016E
S11300D0019631D040E855E260E070E0CE0101962F
S11300E0A1D063E0CE0101962FD060E0CE0101964D
S11300F055D060E0CE01019662D060E0CE01019659
S113010074D0CE01019683D0CE01019685D0CE0164
S1130110019620D1789493E0809102018F5F8093BF
S1130120020180FF02C095B901C015B88091000199
S11301308093C600F1CFFC011082118212821382D7
S11301401482158216820895FC01611103C085E0B2
S1130150878319C0613021F486E0878382E014C06C
S1130160623021F487E0878384E00EC0633021F499
S113017088E0878386E008C0643029F489E08783B7
S113018086E094E002C080E090E021812B7F292B5F
S113019021839281997F982B92830895611102C0E3
S11301A030E007C0613021F06230D1F730EC01C09B
S11301B030E4FC0122812F73232B22830895FC0158
S11301C0611102C011860BC0613019F4618790E29D
S11301D007C0623021F481E0818790E301C090E0A0
S11301E082818F7C892B82830895FC01611103C075
S11301F081E0808706C0613021F482E0808798E046
S113020001C090E08281877F892B82830895FC015D
S11302102181286121830895FC0121812F71206CA3
S113022021830895FC014383548365837683089571
S1130230FC0120812260208308954F925F926F9287
S11302407F928F929F92AF92BF92CF92DF92EF9262
S1130250FF92CF93DF93EC014B805C806D807E80B6
S1130260A3019201E4E0220F331F441F551FEA95B6
S1130270D1F760E071EE85EF95E082D0215031092D
S113028041095109CA01B90124E630E040E050E0D7
S113029099D069017A0163337105810591052CF0C8
S11302A08FEFC81AD80AE80AF80AA70196012F5F47
S11302B03F4F4F4F5F4F94E0220F331F441F551F92
S11302C09A95D1F760E4862E62E4962E6FE0A62E0E
S11302D0B12CC501B40154D02C193D094E095F0954
S11302E077E0220F331F441F551F7A95D1F7CA01B7
S11302F0B901A701960166D0232B242B252BB1F03D
S1130300A301920183E0220F331F441F551F8A95D6
S1130310D1F7C501B40134D069017A0181E0C81A6A
S1130320D108E108F108CE0183DF03C088818D7F05
S11303308883CA86DB86DF91CF91FF90EF90DF90B0
S1130340CF90BF90AF909F908F907F906F905F9071
S11303504F900895CF93DF93EC016FDF88818093F2
S1130360C00089818093C1008A818093C2008A85FC
S11303708093C4008B858093C500DF91CF9108954D
S1130380A1E21A2EAA1BBB1BFD010DC0AA1FBB1F95
S1130390EE1FFF1FA217B307E407F50720F0A21B07
S11303A0B30BE40BF50B661F771F881F991F1A9474
S11303B069F760957095809590959B01AC01BD019E
S11303C0CF010895052E97FB16F400940FD057FD26
S11303D005D0D6DF07FC02D046F408C050954095FE
S11303E0309521953F4F4F4F5F4F089590958095DD
S11303F0709561957F4F8F4F9F4F0895F894FFCF6D
S1050400620094
S9030000FC
