S013000041746D65676154696D65722E73726563C1
S113000019C028C027C026C025C024C023C022C0D0
S113001021C020C01FC01EC01DC01CC01BC01AC0F0
S113002023C018C017C016C015C014C013C012C016
S113003011C010C011241FBECFEFD4E0DEBFCDBF6E
S113004021E0A0E0B1E001C01D92A130B207E1F7C8
S113005002D01CC0D5CF80EC87BD82E084BD85E092
S113006084BD81E084B9FFCF1F920F920FB60F9227
S113007011248F938091000180958093000185B9AC
S11300808F910F900FBE0F901F901895F894FFCF8B
S9030000FC
